:100000000C9436000C945E000C945E000C945E0020
:100010000C945E000C945E000C945E000C945E00E8
:100020000C945E000C945E000C945E000C945E00D8
:100030000C945E000C945E000C945E000C945E00C8
:100040000C945E000C945E000C945E000C945E00B8
:100050000C945E000C945E000C945E000C945E00A8
:100060000C945E000C945E006706760611241FBE99
:10007000CFEFD8E0DEBFCDBF11E0A0E0B1E0E2EB12
:10008000F2E102C005900D92AE33B107D9F721E03D
:10009000AEE3B1E001C01D92A535B207E1F710E073
:1000A000C5E3D0E004C02197FE010E94DA06C43304
:1000B000D107C9F70E9460040C944C090C9400000D
:1000C000FC0117821682138212821582148208950F
:1000D00080E090E00895FC01138212821582148260
:1000E00086E391E091838083178216820895CF93EF
:1000F000DF93EC018E819F81892B21F08A819B8186
:100100000E948407E881F9810480F581E02DCE0109
:10011000DF91CF91099426E331E0FC013183208304
:100120000C947700CF93DF93EC010E948B00CE01FB
:10013000DF91CF910C947A060F931F93CF93DF93A7
:10014000EC018A010E9471021F830E83DF91CF911F
:100150001F910F910895AF92BF92CF92DF92EF92CD
:10016000FF920F931F93CF93DF931F92CDB7DEB70C
:100170007C015B01DC01ED91FC910680F781E02DB3
:1001800049830995A80EB91EF70186819781498197
:100190008A159B0508F057C0892B19F0C280D380BF
:1001A00002C0C12CD12CC501A0E0B0E00197A1098B
:1001B000B1098C0131F00E949B060FE110E0081B91
:1001C000190B20E030E00F3111052105310518F041
:1001D0000FEF1FEF980141110AC00F5F1F4F81E021
:1001E00090E05C0102C0AA0CBB1C0A95E2F7B501C5
:1001F000C6010E941C08009731F1D7011296ED91BB
:10020000FC91139714964D915C911597CD2811F49C
:10021000309741F4BC01C7010E947102F701B78217
:10022000A68211C0BA016F5F7F4F95016A157B05E9
:1002300008F49B01280F391FDC01A217B30751F303
:1002400061916D93FACF0F90DF91CF911F910F9134
:10025000FF90EF90DF90CF90BF90AF900895CF9236
:10026000DF92EF92FF920F931F93CF93DF931F9232
:10027000CDB7DEB76C018B01DC011696ED90FC90DA
:100280001797ED91FC910680F781E02D4983099540
:10029000800F911F4981E816F90620F4B801C601C4
:1002A0000E94AB00F601158304830F90DF91CF917C
:1002B0001F910F91FF90EF90DF90CF900895FC0178
:1002C000138212821582148226E331E03183208367
:1002D0001782168241E00C942F01EF92FF920F9348
:1002E0001F93CF93DF938C017B01EA0141E0BE01B4
:1002F0000E942F01D8011296ED91FC911397D7011E
:10030000CE0FDF1FEC17FD0719F08D918193FACF07
:10031000DF91CF911F910F91FF90EF900895FC0115
:10032000138212821582148226E331E03183208306
:10033000178216820C946D01FC01138212821582C1
:10034000148226E331E03183208317821682FB0179
:1003500044815581628173810C946D01EF92FF920B
:100360000F931F93CF93DF93EC010A811B81EC80E5
:10037000FD808E819F81892B39F4E881F981048089
:10038000F581E02DCE010995A701B801CE01DF91DD
:10039000CF911F910F91FF90EF900C946D01FC0194
:1003A000138212821582148226E331E03183208386
:1003B00017821682FB0144815581628173810C94FE
:1003C0006D01FC01138212821582148226E331E052
:1003D0003183208317821682FB014481558162811B
:1003E00073810C946D01CF93DF93FC0126813781DB
:1003F000232B91F0EC0164817581828193810E94AD
:100400001C082C813D81009719F42115310521F438
:100410003F832E839B838A83DF91CF910895EF9250
:10042000FF920F931F93CF93DF93EC017A018A81A0
:100430009B818B01081B190B6C817D81640F751FDB
:1004400040E0CE010E942F018A819B812C813D8159
:10045000AC01420F531FBA016E197F09800F911F23
:100460000E94D2028A819B81800F911FDF91CF91E0
:100470001F910F91FF90EF900895EF92FF920F93CD
:100480001F93CF93DF938C017A01FC0182819381CA
:10049000EB01C81BD90B64817581641B750B40E0AF
:1004A000C8010E94AB00F80142815381C40FD51FDF
:1004B00084819581480F591FBE016E0D7F1DCE01AD
:1004C0000E94D202F801848195818E199F0995833B
:1004D0008483CE01DF91CF911F910F91FF90EF9018
:1004E0000895EF92FF920F931F93CF93DF936115BF
:1004F000710519F44115510569F48A017B01EC017C
:10050000E881F9810480F581E02D0995FB82EA827A
:100510001D830C83DF91CF911F910F91FF90EF907E
:100520000895FC0184819581A0E0B0E00496A11DAE
:10053000B11D0895FC01DB0114964D915C91159756
:10054000848195814817590771F412968D919C9179
:100550001397628173818617970739F00E94E60826
:1005600021E0892B19F020E001C021E0822F0895BD
:10057000242F30E0AB01B9010C940E0961507109D0
:1005800028F0FC0141935193CF01F8CF08956150B9
:10059000710938F0FC012193319341935193CF01BC
:1005A000F6CF08954F925F926F927F928F929F92B3
:1005B000AF92BF92CF92DF92EF92FF920F931F9371
:1005C000CF93DF93CDB7DEB76C015B013A014DB637
:1005D0005EB68B01081B190B7A01E61AF70AC801EF
:1005E000E016F10608F4C701009789F12DB73EB770
:1005F000281B390B0FB6F8943EBF0FBE2DBF8DB729
:100600009EB701964C01E016F10680F4A701B501F2
:10061000C4010E94F308A801B601C301801B910B1D
:100620000E94FC08A701B401C6010FC0A801B601D1
:10063000C4010E94F308A701B501C6010E94F30896
:10064000A801B401C6018E0D9F1D0E94F3080FB6CC
:10065000F8945EBE0FBE4DBEDF91CF911F910F91FA
:10066000FF90EF90DF90CF90BF90AF909F908F90D2
:100670007F906F905F904F9008950F931F93643217
:1006800071058105910560F0DC01CB018036910593
:10069000A105B10548F08FE590E0A0E0B0E004C00E
:1006A00084E290E0A0E0B0E08497A109B1098C0158
:1006B0009D018DE0000F111F221F331F8A95D1F776
:1006C00080914C0190E0905260914D0140E8649F10
:1006D000800D911D1124880F991F092E000CAA0B63
:1006E000BB0BA9019801280F391F4A1F5B1FAFEFF1
:1006F000BFE00E94AD0620E030E847E050E00E94F5
:100700007C06211580E138074105510544F4DA01E2
:10071000C90157FF06C080E090E0DC0102C08FEF06
:100720009FE01F910F910895CF93DF931F92CDB754
:10073000DEB76983598145B121E030E002C0220F64
:10074000331F5A95E2F72095309550E02423352346
:1007500025B990639EBD0DB407FEFDCF9EB58EBD3D
:100760000DB407FEFDCF8EB5398125B181E090E053
:1007700001C0880F3A95EAF7822B85B90F90DF9177
:10078000CF910895FB01808180934C0181818093FA
:100790004D0160914801662341F070E080E090E0F7
:1007A0000E943D0362E00E94940360914B01662326
:1007B00061F080914901882341F070E080E090E091
:1007C0000E943D0367E00C9494030895CF938093B7
:1007D000480110924701419A9CED980F9C33B0F468
:1007E000C62F682F70E080E090E00E943D0362E039
:1007F0000E94940380914901811107C067E020E2C3
:10080000C29FC00111240E9494035A9ACF91089567
:1008100060934B0110924A01419A2CED260F2C3324
:1008200030F40E943D0367E00E9494035A9A0895B1
:100830000F931F93CF93DF93EC018B018E819F81E8
:100840008617970718F4CE010E94AB008C819D811A
:10085000A801481B590B57FF02C040E050E02A8115
:100860003B8160E070E0820F931F0E940E091D83A0
:100870000C83DF91CF911F910F910895CF93DF9358
:10088000EC0141E060E070E00E94180481E088879C
:1008900019861A868B871C861D8680E48E87DF91D9
:1008A000CF910895FB0180818B3749F481818111BB
:1008B00006C08FE391E00E943E0441985A98089543
:1008C000399A529A559856985798209884B18862C8
:1008D00084B9229A279A2A9A2F9A8CB580658CBD62
:1008E00062E080E090E00E94940367E080E090E0A6
:1008F0000E94940382E08093C0001092C5008FE1B3
:100900008093C40080E18093C1008EE08093C20098
:1009100010924E0110924F0150E08091C00087FF6D
:10092000FCCF3091C6003093500189B1881F8827D1
:10093000881F880F880F29B1922F907426FD92E0AE
:1009400049B120914E0160914F0127FD04C0211152
:100950001EC05523E1F067FD1AC037FD18C02223E1
:1009600019F020933E0104C020913E0120934E01D6
:1009700020914E012F7030E045FB442740F9840F51
:10098000980F892F90E02817390711F609C0809138
:100990003E01811151E060934E0130934F01BDCF74
:1009A000C3B1C17080914901C81741F08FE391E054
:1009B0000E943E04C093490141985A9880914E018B
:1009C00090E034E0959587953A95E1F7282F8930A6
:1009D00091054CF0893049F08C3048F08F3009F4A3
:1009E00097CF83E005C080E003C081E001C082E0D2
:1009F00090E0FC01E25FFE4F3081321389CF880F17
:100A0000991FFC01E65DFE4F80819181DC01ED9133
:100A1000FC910190F081E02D6FE471E0099578CFB1
:100A2000CF93DF93EB0148812091490180914301ED
:100A30009091440121112BC020914101309142013C
:100A4000820F931FB9012817390761F02F5F3F4FBD
:100A5000FB0150815413F6CF41E050E08FE391E069
:100A60000E943D028091430190914401009709F456
:100A70006DC0E0914101F09142018E0F9F1FFC017A
:100A8000319769818081DF91CF910C94E6032091A9
:100A90004701211117C020914801241313C000976A
:100AA00069F0E0914101F09142018E0F9F1FFC011E
:100AB000319760E080810E94E6031CC081E0809352
:100AC00047013CC020914A01211122C020914B01D5
:100AD00024131EC00097C1F0E0914101F091420142
:100AE0008E0F9F1FFC013197608170E080E090E0E5
:100AF0000E940804809143019091440101979093D2
:100B00004401809343011AC081E080934A0116C0DA
:100B10002091410130914201820F931FB9012817A2
:100B2000390761F02F5F3F4FFB0150815413F6CF1F
:100B300041E050E08FE391E00E943D028091470147
:100B4000882331F080914A01882311F041985A9806
:100B5000DF91CF9108950C9410051F93CF93DF93ED
:100B6000EC01FB0110816C817D816F5F7F4F40E064
:100B70000E94AB00EC81FD813196FD83EC838A817C
:100B80009B81E80FF91F319709F01083DF91CF9116
:100B90001F910895BF92CF92DF92EF92FF920F9331
:100BA0001F93CF93DF931F92CDB7DEB7FB01218157
:100BB000211103C00E9410057DC0FB011081C12ED0
:100BC000D12CE12CF12C80914901811123C0622F9D
:100BD000812F0E94E60320914101309142018091D2
:100BE000430190914401820F931FF901281739079F
:100BF00009F44AC02F5F3F4F408150E060E070E051
:100C00004C155D056E057F0581F78E179F0709F06E
:100C100051C03AC00091470101110BC080914801B9
:100C200090E0A0E0B0E08C159D05AE05BF0509F48D
:100C300041C0B0904A01B1100AC080914B0190E0D0
:100C4000A0E0B0E08C159D05AE05BF0599F120919F
:100C50004101309142018091430190914401820F02
:100C6000931FF90128173907C1F02F5F3F4F4081CB
:100C700050E060E070E04C155D056E057F0589F77A
:100C80008E179F07B9F409C01983BE016F5F7F4FAC
:100C90008FE391E00E94AD050DC0002329F060E0D4
:100CA000812F0E94E60306C0BB2071F3C701B60185
:100CB0000E9408040F90DF91CF911F910F91FF9038
:100CC000EF90DF90CF90BF9008950C94CA058FE30A
:100CD00091E00E946B0041E060E870E08FE391E0FA
:100CE0000E9418048FE391E00C943E048FE391E09E
:100CF0000C948B000C948407052E97FB1EF4009433
:100D00000E94930657FD07D00E94B80607FC03D047
:100D10004EF40C94930650954095309521953F4F95
:100D20004F4F5F4F089590958095709561957F4FD7
:100D30008F4F9F4F0895AA27992329F4A85F982BD6
:100D400011F480E10895903118F4AD5F9295A39568
:100D5000990FE8F78A2F992708950E94E006A59F2A
:100D6000900DB49F900DA49F800D911D11240895A6
:100D7000A1E21A2EAA1BBB1BFD010DC0AA1FBB1F9F
:100D8000EE1FFF1FA217B307E407F50720F0A21B11
:100D9000B30BE40BF50B661F771F881F991F1A947E
:100DA00069F760957095809590959B01AC01BD01A8
:100DB000CF010895EE0FFF1F0590F491E02D0994E7
:100DC000A29FB001B39FC001A39F700D811D11248C
:100DD000911DB29F700D811D1124911D0895CF9317
:100DE000DF938230910510F482E090E0E0915301AE
:100DF000F091540120E030E0C0E0D0E0309711F1F4
:100E00004081518148175907C0F04817590761F4CC
:100E100082819381209719F09B838A832BC09093C2
:100E200054018093530126C02115310519F0421752
:100E3000530718F49A01BE01DF01EF010280F3812C
:100E4000E02DDCCF2115310509F1281B390B2430A9
:100E5000310590F412968D919C911397611571054F
:100E600021F0FB019383828304C09093540180930B
:100E70005301FD01329644C0FD01E20FF31F81933F
:100E80009193225031092D933C933AC02091510106
:100E900030915201232B41F4209102013091030142
:100EA00030935201209351012091000130910101B2
:100EB0002115310541F42DB73EB740910401509101
:100EC0000501241B350BE0915101F0915201E2170D
:100ED000F307A0F42E1B3F0B2817390778F0AC015D
:100EE0004E5F5F4F2417350748F04E0F5F1F50933A
:100EF0005201409351018193919302C0E0E0F0E0F0
:100F0000CF01DF91CF9108950F931F93CF93DF937C
:100F1000009709F48CC0FC01329713821282009171
:100F20005301109154010115110581F42081318183
:100F3000820F931F209151013091520128173907D8
:100F400079F5F0935201E093510171C0D80140E06E
:100F500050E0AE17BF0750F412962D913C911397B5
:100F6000AD012115310509F1D901F3CF9D01DA0158
:100F70003383228360817181860F971F82179307C5
:100F800069F4EC0128813981260F371F2E5F3F4F0E
:100F9000318320838A819B8193838283452B29F42B
:100FA000F0935401E093530142C01396FC93EE93E7
:100FB0001297ED01499159919E01240F351FE217B7
:100FC000F30771F480819181840F951F0296119629
:100FD0009C938E938281938113969C938E93129708
:100FE000E0E0F0E0D80112968D919C911397009764
:100FF00019F0F8018C01F6CF8D919C9198012E5F2C
:101000003F4F820F931F20915101309152012817B9
:10101000390769F4309729F4109254011092530162
:1010200002C0138212821093520100935101DF918A
:10103000CF911F910F910895A0E0B0E0E2E2F8E0B7
:101040000C941909EC01009721F4CB010E94EF06E2
:10105000B8C0FC01E60FF71F9C0122503109E217CE
:10106000F30708F4ACC0D9010D911C911197061734
:101070001707B0F00530110508F49FC0C8010497A8
:101080008617970708F499C002501109061B170B21
:10109000019311936D937C93CF010E9484078DC0BF
:1010A0005B01A01AB10A4C01800E911EA091530160
:1010B000B091540140E050E0E12CF12C109709F47C
:1010C0004AC0A815B905D1F56D907C9011976301C0
:1010D00082E0C80ED11CCA14DB0480F1A3014A19B6
:1010E0005B096A0182E0C80ED11C1296BC9012976F
:1010F0001396AC91B5E0CB16D10440F0B282A38335
:1011000051834083D9016D937C930AC00E5F1F4FBA
:10111000C301800F911FF90191838083EB2DFA2F7A
:10112000E114F10431F0D7011396FC93EE9312977A
:1011300044C0F0935401E09353013FC08D919C91C2
:1011400011974817590708F4AC017D0112960D90CC
:10115000BC91A02DB3CF809151019091520188157F
:101160009905E1F446175707C8F480910001909162
:101170000101009741F48DB79EB740910401509151
:101180000501841B950BE817F907C8F4F093520189
:10119000E0935101F901718360830FC0CB010E947C
:1011A000EF067C01009759F0A801BE010E94F308E8
:1011B000CE010E948407C70104C0CE0102C080E0B6
:1011C00090E0CDB7DEB7EEE00C943509FB01DC0111
:1011D00004C08D910190801921F441505040C8F70E
:1011E000881B990B0895FB01DC0102C001900D9250
:1011F00041505040D8F708956817790768F4FB010B
:10120000DC01E40FF51FA40FB51F02C002900E927F
:1012100041505040D8F708950C94F308DC0101C008
:101220006D9341505040E0F708952F923F924F92B6
:101230005F926F927F928F929F92AF92BF92CF9266
:10124000DF92EF92FF920F931F93CF93DF93CDB76F
:10125000DEB7CA1BDB0B0FB6F894DEBF0FBECDBFE7
:1012600009942A88398848885F846E847D848C84B8
:101270009B84AA84B984C884DF80EE80FD800C81C1
:101280001B81AA81B981CE0FD11D0FB6F894DEBFA4
:101290000FBECDBFED01089510E0C5E3D0E004C05E
:1012A000FE010E94DA062196C633D107C9F7F894E9
:0212B000FFCF6E
:1012B200000055012000280122011C011601080925
:1012C2000B0E000000005204000000006506000042
:1012D2000000AB0500000000C20308010A010C0176
:0E12E2000601000000008B0092006000680012
:00000001FF
