:100000000C9436000C945E000C945E000C945E0020
:100010000C945E000C945E000C945E000C945E00E8
:100020000C945E000C945E000C945E000C94C4046E
:100030000C945E000C945E000C945E000C945E00C8
:100040000C945E000C945E000C945E000C945E00B8
:100050000C945E000C945E000C945E000C945E00A8
:100060000C945E000C945E00EF070A0811241FBE7A
:10007000CFEFD8E0DEBFCDBF11E0A0E0B1E0EAE015
:10008000F6E102C005900D92AC33B107D9F721E03B
:10009000ACE3B1E001C01D92AE36B207E1F710E06B
:1000A000C5E3D0E004C02197FE010E949508C43347
:1000B000D107C9F70E94E0050C94F80A0C940000DF
:1000C000FC0117821682138212821582148208950F
:1000D00080E090E00895FC01138212821582148260
:1000E00084E391E091838083178216820895CF93F1
:1000F000DF93EC018E819F81892B21F08A819B8186
:100100000E943009E881F9810480F581E02DCE015B
:10011000DF91CF91099424E331E0FC013183208306
:100120000C947700CF93DF93EC010E948B00CE01FB
:10013000DF91CF910C940E080F931F93CF93DF9311
:10014000EC018A010E9471021F830E83DF91CF911F
:100150001F910F910895AF92BF92CF92DF92EF92CD
:10016000FF920F931F93CF93DF931F92CDB7DEB70C
:100170007C015B01DC01ED91FC910680F781E02DB3
:1001800049830995A80EB91EF70186819781498197
:100190008A159B0508F057C0892B19F0C280D380BF
:1001A00002C0C12CD12CC501A0E0B0E00197A1098B
:1001B000B1098C0131F00E943F080FE110E0081BEB
:1001C000190B20E030E00F3111052105310518F041
:1001D0000FEF1FEF980141110AC00F5F1F4F81E021
:1001E00090E05C0102C0AA0CBB1C0A95E2F7B501C5
:1001F000C6010E94C809009731F1D7011296ED910E
:10020000FC91139714964D915C911597CD2811F49C
:10021000309741F4BC01C7010E947102F701B78217
:10022000A68211C0BA016F5F7F4F95016A157B05E9
:1002300008F49B01280F391FDC01A217B30751F303
:1002400061916D93FACF0F90DF91CF911F910F9134
:10025000FF90EF90DF90CF90BF90AF900895CF9236
:10026000DF92EF92FF920F931F93CF93DF931F9232
:10027000CDB7DEB76C018B01DC011696ED90FC90DA
:100280001797ED91FC910680F781E02D4983099540
:10029000800F911F4981E816F90620F4B801C601C4
:1002A0000E94AB00F601158304830F90DF91CF917C
:1002B0001F910F91FF90EF90DF90CF900895FC0178
:1002C000138212821582148224E331E03183208369
:1002D0001782168241E00C942F01EF92FF920F9348
:1002E0001F93CF93DF938C017B01EA0141E0BE01B4
:1002F0000E942F01D8011296ED91FC911397D7011E
:10030000CE0FDF1FEC17FD0719F08D918193FACF07
:10031000DF91CF911F910F91FF90EF900895FC0115
:10032000138212821582148224E331E03183208308
:10033000178216820C946D01FC01138212821582C1
:10034000148224E331E03183208317821682FB017B
:1003500044815581628173810C946D01EF92FF920B
:100360000F931F93CF93DF93EC010A811B81EC80E5
:10037000FD808E819F81892B39F4E881F981048089
:10038000F581E02DCE010995A701B801CE01DF91DD
:10039000CF911F910F91FF90EF900C946D01FC0194
:1003A000138212821582148224E331E03183208388
:1003B00017821682FB0144815581628173810C94FE
:1003C0006D01FC01138212821582148224E331E054
:1003D0003183208317821682FB014481558162811B
:1003E00073810C946D01CF93DF93FC0126813781DB
:1003F000232B91F0EC0164817581828193810E94AD
:10040000C8092C813D81009719F42115310521F48B
:100410003F832E839B838A83DF91CF910895EF9250
:10042000FF920F931F93CF93DF93EC017A018A81A0
:100430009B818B01081B190B6C817D81640F751FDB
:1004400040E0CE010E942F018A819B812C813D8159
:10045000AC01420F531FBA016E197F09800F911F23
:100460000E94D2028A819B81800F911FDF91CF91E0
:100470001F910F91FF90EF900895EF92FF920F93CD
:100480001F93CF93DF938C017A01FC0182819381CA
:10049000EB01C81BD90B64817581641B750B40E0AF
:1004A000C8010E94AB00F80142815381C40FD51FDF
:1004B00084819581480F591FBE016E0D7F1DCE01AD
:1004C0000E94D202F801848195818E199F0995833B
:1004D0008483CE01DF91CF911F910F91FF90EF9018
:1004E0000895EF92FF920F931F93CF93DF936115BF
:1004F000710519F44115510569F48A017B01EC017C
:10050000E881F9810480F581E02D0995FB82EA827A
:100510001D830C83DF91CF911F910F91FF90EF907E
:100520000895FC0184819581A0E0B0E00496A11DAE
:10053000B11D0895FC01DB0114964D915C91159756
:10054000848195814817590771F412968D919C9179
:100550001397628173818617970739F00E94920A78
:1005600021E0892B19F020E001C021E0822F0895BD
:10057000242F30E0AB01B9010C94BA0A6150710923
:1005800028F0FC0141935193CF01F8CF08956150B9
:10059000710938F0FC012193319341935193CF01BC
:1005A000F6CF08954F925F926F927F928F929F92B3
:1005B000AF92BF92CF92DF92EF92FF920F931F9371
:1005C000CF93DF93CDB7DEB76C015B013A014DB637
:1005D0005EB68B01081B190B7A01E61AF70AC801EF
:1005E000E016F10608F4C701009789F12DB73EB770
:1005F000281B390B0FB6F8943EBF0FBE2DBF8DB729
:100600009EB701964C01E016F10680F4A701B501F2
:10061000C4010E949F0AA801B601C301801B910B6F
:100620000E94A80AA701B401C6010FC0A801B60123
:10063000C4010E949F0AA701B501C6010E949F0A3A
:10064000A801B401C6018E0D9F1D0E949F0A0FB61E
:10065000F8945EBE0FBE4DBEDF91CF911F910F91FA
:10066000FF90EF90DF90CF90BF90AF909F908F90D2
:100670007F906F905F904F9008958F929F92AF926E
:10068000BF92CF92DF92EF92FF92643271058105A3
:10069000910568F06B017C0160367105810591055B
:1006A00058F0EFE5CE2ED12CE12CF12C05C074E2F0
:1006B000C72ED12CE12CF12C20914F01822F90E0FC
:1006C000A0E0B0E0AC01BD01505261097109809118
:1006D000500190E0A0E0B0E027E0880F991FAA1F2A
:1006E000BB1F2A95D1F79A01AB01280F391F4A1F6A
:1006F0005B1F80915201A091510194E6A99FD00106
:100700001124AB2FBB0FBB0B94E6899FA00DB11D2D
:1007100011240E946B084B015C0122ECA21A21E01B
:10072000B20AA701960160E070E88CE090E00E94B8
:100730001008680D791D8A1D9B1D24E630E040E0FD
:1007400050E00E942008AFEFBFE00E94600820E068
:1007500030E847E050E00E942008211580E138078A
:100760004105510544F4DA01C90157FF06C080E094
:1007700090E0DC0102C08FEF9FE0FF90EF90DF90F0
:10078000CF90BF90AF909F908F900895CF93DF93BD
:100790001F92CDB7DEB76983598145B121E030E0C2
:1007A00002C0220F331F5A95E2F72095309550E092
:1007B0002423352325B990639EBD0DB407FEFDCFDC
:1007C0009EB58EBD0DB407FEFDCF8EB5398125B126
:1007D00081E090E001C0880F3A95EAF7822B85B955
:1007E0000F90DF91CF91089560934E0110924D01CB
:1007F000419A2CED260F2C3330F40E943D0367E024
:100800000E94C6035A9A0895CF92DF92EF92FF9208
:100810001F93CF93DF9380934B0110924A01419A2B
:100820009CED980F9C3308F072C0162FC0905301B6
:10083000D0905401E0905501F0905601682F70E07F
:1008400080E090E00E943D03EC0180916F008D7F7D
:1008500080936F00C114D104E104F10449F462E013
:10086000CE010E94C603D0936101C093600143C0D2
:10087000C0925A01D0925B01E0925C01F0925D015E
:100880008091600190916101A0E0B0E080936601E9
:1008900090936701A0936801B0936901AE0160E095
:1008A00070E0409362015093630160936401709320
:1008B0006501809180008860809380008091810034
:1008C0008B7F809381008091810083608093810081
:1008D0008DE790E0909389008093880010925F01EB
:1008E00010925E01109285001092840080916F003A
:1008F000826080936F0080914C01811107C067E096
:1009000020E2129FC00111240E94C6035A9ADF916F
:10091000CF911F91FF90EF90DF90CF900895CF93EC
:10092000DF93FB01808180934F018181809350018F
:1009300060914B01662399F070E080E090E00E94A6
:100940003D03EC0190916F009D7F90936F0062E0FA
:10095000CE010E94C603D0936101C09360016091F3
:100960004E01662371F080914C01882351F070E0B4
:1009700080E090E00E943D0367E0DF91CF910C940E
:10098000C603DF91CF9108951F920F920FB60F9279
:100990001124CF92DF92EF92FF922F933F934F93C8
:1009A0005F936F937F938F939F93AF93BF93EF93D7
:1009B000FF93109285001092840080915E019091C7
:1009C0005F01019690935F0180935E01A0915E01AB
:1009D000B0915F01409162015091630160916401A7
:1009E00070916501C0906601D0906701E090680148
:1009F000F09069019A01AB012C193D094E095F097C
:100A00000E94600820915A0130915B0140915C0185
:100A100050915D01C0906601D0906701E09068013F
:100A2000F09069010E942008C20ED31ED09261018D
:100A3000C092600140916601509167016091680128
:100A4000709169018091620190916301A0916401AC
:100A5000B0916501481759076A077B079CF480919C
:100A60006001909161014091620150916301609138
:100A7000640170916501A0E0B0E0481759076A076A
:100A80007B0744F5409166015091670160916801D0
:100A9000709169018091620190916301A09164015C
:100AA000B091650184179507A607B707DCF480911C
:100AB00060019091610140916201509163016091E8
:100AC000640170916501A0E0B0E084179507A60766
:100AD000B70744F0809160019091610162E00E944B
:100AE000C60318C08091620190916301A0916401D6
:100AF000B0916501909361018093600180916001E4
:100B00009091610162E00E94C60380916F008D7F29
:100B100080936F00FF91EF91BF91AF919F918F9163
:100B20007F916F915F914F913F912F91FF90EF9047
:100B3000DF90CF900F900FBE0F901F9018950F93DE
:100B40001F93CF93DF93EC018B018E819F818617DA
:100B5000970718F4CE010E94AB008C819D81A801FB
:100B6000481B590B57FF02C040E050E02A813B81EF
:100B700060E070E0820F931F0E94BA0A1D830C830D
:100B8000DF91CF911F910F910895CF93DF93EC01E7
:100B900041E060E070E00E949F0581E0888719864F
:100BA0001A868B871C861D8680E48E8782E0888B60
:100BB0001F86198A1A8A1B8A1C8ADF91CF91089591
:100BC000399A529A559856985798209884B18862C5
:100BD00084B9229A279A2A9A2F9A8CB580658CBD5F
:100BE00062E080E090E00E94C60367E080E090E071
:100BF0000E94C60382E08093C0001092C5008FE17E
:100C00008093C40080E18093C1008EE08093C20095
:100C1000789410925701109258018091C00087FF7C
:100C2000FCCF5091C6005093590120915701822F5B
:100C300090E0880F892F881F990B609158010197C8
:100C400041F5862F90E0880F892F881F990B892BFB
:100C500001F5852F90E0880F892F881F990B892B2C
:100C6000C1F489B1881F8827881F880F880F39B180
:100C7000932F907436FD92E049B12F7030E045FB20
:100C8000442740F9840F980F892F90E028173907DF
:100C900029F06093570150935801BFCFC3B1C17081
:100CA00080914C01C81741F082E491E00E94C50593
:100CB000C0934C0141985A988091570190E034E0DC
:100CC000959587953A95E1F7282F893091054CF055
:100CD000893049F08C3048F08F3009F49ACF83E0A6
:100CE00005C080E003C081E001C082E090E0FC012B
:100CF000E45FFE4F308132138CCF880F991FFC01C7
:100D0000E85DFE4F80819181DC01ED91FC910190C5
:100D1000F081E02D68E571E009957BCFCF92DF92FD
:100D2000EF92FF92FC018381811129C082818111A0
:100D300007C08481809351018581809352011FC037
:100D40008530E9F42481458130E0A4E6B0E00E94DA
:100D50005108C72ED82EE92EFF24242F30E00E9400
:100D60005108DC01CB018C0D9D1DAE1DBF1D809374
:100D7000530190935401A0935501B0935601FF90F5
:100D8000EF90DF90CF900895FB012081213611F183
:100D900048F42632A9F02036B9F0263061F52181D9
:100DA000FC011DC0253641F02B37E1F0243619F542
:100DB0002181FC01228308952181FC012383089570
:100DC0002181FC0124830CC0FC0125812F3F99F077
:100DD0002F5F05C0FC012581222369F02150258366
:100DE0000C948E068181811106C082E491E00E94FC
:100DF000C50541985A980895CF93DF93EB01488138
:100E000020914C01809146019091470121112BC006
:100E10002091440130914501820F931FB901281799
:100E2000390761F02F5F3F4FFB0150815413F6CF1C
:100E300041E050E082E491E00E943D028091460151
:100E400090914701009709F46DC0E0914401F09141
:100E500045018E0F9F1FFC01319769818081DF91D1
:100E6000CF910C94040420914A01211117C02091C4
:100E70004B01241313C0009769F0E0914401F091F5
:100E800045018E0F9F1FFC01319760E080810E9419
:100E900004041CC081E080934A013CC020914D01B4
:100EA000211122C020914E0124131EC00097C1F0D1
:100EB000E0914401F09145018E0F9F1FFC01319795
:100EC000608170E080E090E00E94F4038091460130
:100ED00090914701019790934701809346011AC072
:100EE00081E080934D0116C020914401309145016D
:100EF000820F931FB9012817390761F02F5F3F4F09
:100F0000FB0150815413F6CF41E050E082E491E0C0
:100F10000E943D0280914A01882331F080914D0169
:100F2000882311F041985A98DF91CF9108950C943D
:100F3000FC061F93CF93DF93EC01FB0110816C81C2
:100F40007D816F5F7F4F40E00E94AB00EC81FD81AF
:100F50003196FD83EC838A819B81E80FF91F3197DD
:100F600009F01083DF91CF911F9108951F93CF93C4
:100F7000DF931F92CDB7DEB7FB012181211103C0A2
:100F80000E94FC0627C0FB01108180914C01811159
:100F900005C0622F812F0E94040414C080914A0171
:100FA000882329F060E0812F0E94040413C08091FF
:100FB0004D01882339F0612F70E080E090E00E94BD
:100FC000F40308C01983BE016F5F7F4F82E491E094
:100FD0000E9499070F90DF91CF911F91089582E4AD
:100FE00091E00E946B0041E060E870E082E491E0F3
:100FF0000E949F0582E491E00E94C505ECE3F1E0C8
:1010000086E0DF011D928A95E9F780E291E0918305
:101010008083089582E491E00C948B000C94300955
:10102000DB018F939F930E946008BF91AF91A29FB5
:10103000800D911DA39F900DB29F900D11240895D6
:10104000052E97FB1EF400940E94370857FD07D029
:101050000E94730807FC03D04EF40C943708509597
:101060004095309521953F4F4F4F5F4F0895909594
:101070008095709561957F4F8F4F9F4F0895AA2758
:10108000992329F4A85F982B11F480E108959031F9
:1010900018F4AD5F9295A395990FE8F78A2F9927D9
:1010A0000895A29FB001B39FC001A39F700D811D41
:1010B0001124911DB29F700D811D1124911D089561
:1010C0000E945108A59F900DB49F900DA49F800D84
:1010D000911D11240895B7FF0C9460080E946008C8
:1010E000821B930B0895A1E21A2EAA1BBB1BFD01C4
:1010F0000DC0AA1FBB1FEE1FFF1FA217B307E407F7
:10110000F50720F0A21BB30BE40BF50B661F771F4E
:10111000881F991F1A9469F760957095809590952E
:101120009B01AC01BD01CF010895EE0FFF1F05909B
:10113000F491E02D0994CF93DF938230910510F460
:1011400082E090E0E0916C01F0916D0120E030E0F0
:10115000C0E0D0E0309711F1408151814817590724
:10116000C0F04817590761F482819381209719F0E4
:101170009B838A832BC090936D0180936C0126C062
:101180002115310519F04217530718F49A01BE01D1
:10119000DF01EF010280F381E02DDCCF2115310565
:1011A00009F1281B390B2430310590F412968D91EA
:1011B0009C9113976115710521F0FB019383828344
:1011C00004C090936D0180936C01FD01329644C080
:1011D000FD01E20FF31F81939193225031092D936A
:1011E0003C933AC020916A0130916B01232B41F46A
:1011F000209102013091030130936B0120936A0129
:1012000020910001309101012115310541F42DB7E4
:101210003EB74091040150910501241B350BE0912C
:101220006A01F0916B01E217F307A0F42E1B3F0B4C
:101230002817390778F0AC014E5F5F4F2417350748
:1012400048F04E0F5F1F50936B0140936A018193EA
:10125000919302C0E0E0F0E0CF01DF91CF910895DB
:101260000F931F93CF93DF93009709F48CC0FC0179
:1012700032971382128200916C0110916D01011559
:10128000110581F420813181820F931F20916A0121
:1012900030916B012817390779F5F0936B01E093D2
:1012A0006A0171C0D80140E050E0AE17BF0750F4AA
:1012B00012962D913C911397AD012115310509F13D
:1012C000D901F3CF9D01DA013383228360817181DB
:1012D000860F971F8217930769F4EC0128813981E3
:1012E000260F371F2E5F3F4F318320838A819B81DA
:1012F00093838283452B29F4F0936D01E0936C0175
:1013000042C01396FC93EE931297ED0149915991C7
:101310009E01240F351FE217F30771F4808191813C
:10132000840F951F029611969C938E9382819381D0
:1013300013969C938E931297E0E0F0E0D8011296FA
:101340008D919C911397009719F0F8018C01F6CFBD
:101350008D919C9198012E5F3F4F820F931F20919A
:101360006A0130916B012817390769F4309729F425
:1013700010926D0110926C0102C0138212821093C0
:101380006B0100936A01DF91CF911F910F91089536
:10139000A0E0B0E0EEECF9E00C94C50AEC01009797
:1013A00021F4CB010E949B08B8C0FC01E60FF71F97
:1013B0009C0122503109E217F30708F4ACC0D901AF
:1013C0000D911C91119706171707B0F00530110504
:1013D00008F49FC0C80104978617970708F499C0BE
:1013E00002501109061B170B019311936D937C9307
:1013F000CF010E9430098DC05B01A01AB10A4C01D7
:10140000800E911EA0916C01B0916D0140E050E002
:10141000E12CF12C109709F44AC0A815B905D1F5B3
:101420006D907C901197630182E0C80ED11CCA14A4
:10143000DB0480F1A3014A195B096A0182E0C80E4E
:10144000D11C1296BC9012971396AC91B5E0CB16B6
:10145000D10440F0B282A38351834083D9016D93BC
:101460007C930AC00E5F1F4FC301800F911FF901CB
:1014700091838083EB2DFA2FE114F10431F0D70131
:101480001396FC93EE93129744C0F0936D01E09392
:101490006C013FC08D919C9111974817590708F432
:1014A000AC017D0112960D90BC91A02DB3CF80911F
:1014B0006A0190916B0188159905E1F44617570769
:1014C000C8F48091000190910101009741F48DB71B
:1014D0009EB74091040150910501841B950BE817BC
:1014E000F907C8F4F0936B01E0936A01F901718385
:1014F00060830FC0CB010E949B087C01009759F0CC
:10150000A801BE010E949F0ACE010E943009C701B6
:1015100004C0CE0102C080E090E0CDB7DEB7EEE0BF
:101520000C94E10AFB01DC0104C08D91019080194B
:1015300021F441505040C8F7881B990B0895FB01D6
:10154000DC0102C001900D9241505040D8F708953F
:101550006817790768F4FB01DC01E40FF51FA40F9D
:10156000B51F02C002900E9241505040D8F7089526
:101570000C949F0ADC0101C06D9341505040E0F78C
:1015800008952F923F924F925F926F927F928F9227
:101590009F92AF92BF92CF92DF92EF92FF920F9302
:1015A0001F93CF93DF93CDB7DEB7CA1BDB0B0FB60C
:1015B000F894DEBF0FBECDBF09942A8839884888C9
:1015C0005F846E847D848C849B84AA84B984C8845F
:1015D000DF80EE80FD800C811B81AA81B981CE0F56
:1015E000D11D0FB6F894DEBF0FBECDBFED0108953B
:1015F00010E0C5E3D0E004C0FE010E9495082196EA
:0A160000C633D107C9F7F894FFCFF5
:10160A0000006E01200026011A01140108090B0EC0
:10161A0000000000B6070000000097070000000065
:10162A00C406000000008F0408010A013C010601FB
:0C163A00000000008B00920060006800BF
:00000001FF
